:100000000C945C000C9479000C9479000C947900A9
:100010000C9479000C9479000C9479000C9479007C
:100020000C9479000C9479000C9479000C9479006C
:100030000C9479000C9479000C9479000C9479005C
:100040000C9430020C9479000C9479000C94790093
:100050000C9479000C9479000C9479000C9479003C
:100060000C9479000C947900000000080002010053
:100070000003040700000000000000000000000072
:10008000250028002B0000000000240027002A0083
:10009000040404040404040402020202020203032E
:1000A0000303030301020408102040800102040836
:1000B000102001020408102011241FBECFEFD8E049
:1000C000DEBFCDBF11E0A0E0B1E0EAE8F2E102C09E
:1000D00005900D92A430B107D9F721E0A4E0B1E07A
:1000E00001C01D92A536B207E1F70E947A020C9476
:1000F00043090C94000090E0FC01EC55FF4F249163
:10010000FC01E057FF4F8491882399F090E0880F1D
:10011000991FFC01EA57FF4FA591B491FC01E458E7
:10012000FF4F859194918FB7F894EC91E22BEC936B
:100130008FBF089590E0FC01E859FF4F3491FC0116
:10014000EC55FF4F2491FC01E057FF4FE491EE2363
:1001500009F43BC0332339F1333091F038F43130B6
:10016000A9F0323001F584B58F7D12C0373091F09F
:100170003830A1F03430B9F4809180008F7D03C015
:10018000809180008F77809380000DC084B58F7739
:1001900084BD09C08091B0008F7703C08091B0000A
:1001A0008F7D8093B000F0E0EE0FFF1FE458FF4F0B
:1001B000A591B4918FB7F894EC91611103C020958B
:1001C0002E2301C02E2B2C938FBF08953FB7F89498
:1001D0008091090190910A01A0910B01B0910C014D
:1001E00026B5A89B05C02F3F19F00196A11DB11D92
:1001F0003FBFBA2FA92F982F8827820F911DA11DCD
:10020000B11DBC01CD0142E0660F771F881F991F09
:100210004A95D1F708952DE031E04BE051E080E0C0
:1002200090E0F901E80FF91F50830196883091059D
:10023000C1F74150285F3F4F4111F1CF08952DE0A4
:1002400031E04BE080E090E0F901E80FF91F108207
:10025000019688309105C1F74150285F3F4F411109
:10026000F1CF08950F931F93CF93DF93C7E0D0E0B2
:10027000082F10E0B8010C2E02C0759567950A94FE
:10028000E2F76170772787E00E949A0061E089E0D9
:100290000E949A0060E089E00E949A00219750F73E
:1002A000DF91CF911F910F9108953F924F925F92EE
:1002B0006F927F928F929F92AF92BF92CF92DF9276
:1002C000EF92FF920F931F93CF93DF9300D000D054
:1002D00000D0CDB7DEB72B013C018FB7F8948090EA
:1002E000050190900601A0900701B09008018FBF12
:1002F000CC24C394D12C2FB7F89480910501909110
:100300000601A0910701B09108012FBF8819990932
:10031000AA09BB0984159505A605B70508F053C0C1
:100320008DE0E82E81E0F82E1E821D8280E090E0B4
:1003300033243A94330CF701E80FF91F2081322A55
:10034000019688309105B1F760E088E00E949A003C
:1003500086010D8002C0000F111F0A94E2F7802F62
:100360000E943201812F0E943201832D0E943201AE
:1003700061E088E00E949A000E94E60069837A8327
:100380008B839C830E94E600DC01CB0129813A81AA
:100390004B815C81821B930BA40BB50B883E934071
:1003A000A105B10578F34D815E814F5F5F4F5E839C
:1003B0004D8358E0E50EF11C2D813E812B30310537
:1003C00009F0B4CF98CF26960FB6F894DEBF0FBED3
:1003D000CDBFDF91CF911F910F91FF90EF90DF90F4
:1003E000CF90BF90AF909F908F907F906F905F90D5
:1003F0004F903F90089560E088E00E949A0080E06E
:100400000E94320180E00E94320180E00E943201AD
:1004100061E088E00C949A00CF93DF9300D000D085
:10042000CDB7DEB7611571058105910579F09B01A6
:10043000AC0169833A834B835C830E94AA082981BB
:100440003A814B815C810E94B80803C060E070E093
:10045000CB010F900F900F900F90DF91CF910895E7
:100460001F920F920FB60F9211242F933F938F93E9
:100470009F93AF93BF938091050190910601A09146
:100480000701B09108013091040123E0230F2D37BB
:1004900020F40196A11DB11D05C026E8230F029688
:1004A000A11DB11D209304018093050190930601C5
:1004B000A0930701B09308018091090190910A016E
:1004C000A0910B01B0910C010196A11DB11D80936B
:1004D000090190930A01A0930B01B0930C01BF9105
:1004E000AF919F918F913F912F910F900FBE0F90E1
:1004F0001F901895CF93DF93CDB7DEB727970FB630
:10050000F894DEBF0FBECDBF789484B5826084BD01
:1005100084B5816084BD85B5826085BD85B5816007
:1005200085BD80916E00816080936E001092810085
:100530008091810082608093810080918100816040
:100540008093810080918000816080938000809101
:10055000B10084608093B1008091B000816080938D
:10056000B00080917A00846080937A0080917A0054
:10057000826080937A0080917A00816080937A0013
:1005800080917A00806880937A001092C10088E0A0
:100590000E947B0087E00E947B0089E00E947B0034
:1005A0000E94FB010E940B0160ED77E080E090E08B
:1005B0000E9455010E941F010E94FB018DE091E005
:1005C000A8E08A0F382E7AE0B72EDD24D3944DE0D0
:1005D000E42E41E0F42E87015BE0C52E80E090E040
:1005E000F801E80FF91FD082019688309105C1F714
:1005F00066E470E080E090E00E94550180E090E0C9
:10060000F801E80FF91F1082019688309105C1F7B3
:10061000CA94085F1F4FC110E1CF0DE011E06BE0FD
:10062000C62E80E090E0FC01E05BFF4FE00FF11F81
:10063000D082019688309105B1F766E470E080E0E1
:1006400090E00E94550180E090E09801205B3F4FD0
:10065000F901E80FF91F1082019688309105C1F762
:10066000CA9408501109C110DCCFBA94B110AFCFB1
:100670000AE0DD24D3948DE0A82E81E0B82E1BE0A3
:1006800080E090E0F501E80FF91FD08201968830F4
:100690009105C1F766E470E080E090E00E945501AA
:1006A0001150B8E0AB0EB11C1111EACF3DE0A32E02
:1006B00031E0B32E1BE080E090E0F501E80FF91F78
:1006C0001082019688309105C1F766E470E080E001
:1006D00090E00E9455011150E8E0AE0EB11C1111DE
:1006E000EACF2DE0A22E21E0B22E1BE080E090E0C8
:1006F000FC01E05BFF4FEA0DFB1DD08201968830C4
:100700009105B1F766E470E080E090E00E94550149
:100710001150F8E0AF1AB1081111E8CF9DE0A92EF1
:1007200091E0B92E1BE080E090E0FC01E05BFF4F20
:10073000EA0DFB1D1082019688309105B1F766E441
:1007400070E080E090E00E945501115028E0A21A6C
:10075000B1081111E8CF015009F08DCF11E01093CD
:100760000D0164E670E080E090E00E945501109376
:100770000E0164E670E080E090E00E94550112E016
:10078000A12EB12C00E010E04424439448018FEFE7
:10079000881A980AC501877099276401A3E0CC0CD8
:1007A000DD1CAA95E1F7F601E80FF91FE35FFE4FA4
:1007B000552453944082B3E0000F111FBA95E1F71E
:1007C000800F911FFC01E35FFE4F408264E670E002
:1007D00080E090E00E945501C5010196877099273D
:1007E000F601E80FF91FE35FFE4F4082080F191F63
:1007F000F801E35FFE4F408264E670E080E090E045
:100800000E94550192E0A90EB11C84010A30110525
:1008100009F0BCCF5092630164E670E080E090E0A4
:100820000E9455015092640164E670E080E090E01F
:100830000E9455015092110164E670E080E090E062
:100840000E9455015092120164E670E080E090E051
:100850000E945501F7E0AF2EB12C00E010E04801F6
:10086000AFEF8A1A9A0AC501019787709927640128
:1008700073E0CC0CDD1C7A95E1F7F601E80FF91F67
:10088000E35FFE4F5082E3E0000F111FEA95E1F7AE
:10089000800F911FFC01E35FFE4F508264E670E021
:1008A00080E090E00E945501C50187709927F6010C
:1008B000E80FF91FE35FFE4F5082080F191FF80180
:1008C000E35FFE4F508264E670E080E090E00E94BB
:1008D0005501B2E0AB0EB11C84010A30110509F0DC
:1008E000BECF10925F0164E670E080E090E00E946D
:1008F00055011092600164E670E080E090E00E9493
:10090000550110920D0164E670E080E090E00E94D5
:10091000550110920E0164E670E080E090E00E94C4
:10092000550162E0A62EB12C00E010E04801EFEF87
:100930008E1A9E0AF501E770FF27640143E0CC0C94
:10094000DD1C4A95E1F7D601AE0FBF1FA35FBE4F76
:100950001C9253E0000F111F5A95E1F7E00FF11FB1
:10096000E35FFE4F108264E670E080E090E00E945A
:100970005501C501019687709927F601E80FF91F07
:10098000E35FFE4F1082080F191FF801E35FFE4F6F
:10099000108264E670E080E090E00E945501F2E091
:1009A000AF0EB11C84010A30110509F0BFCF1092BF
:1009B000630164E670E080E090E00E9455011092CF
:1009C000640164E670E080E090E00E94550137E049
:1009D000A32EB12C00E010E048012FEF821A920AFA
:1009E000C5010197877099276401B3E0CC0CDD1C29
:1009F000BA95E1F7F601E80FF91FE35FFE4F1082A9
:100A000023E0000F111F2A95E1F7800F911FFC01D1
:100A1000E35FFE4F108264E670E080E090E00E94A9
:100A20005501C50187709927F601E80FF91FE35FAB
:100A3000FE4F1082080F191FF801E35FFE4F10826E
:100A400064E670E080E090E00E94550182E0A80E2C
:100A5000B11C84010A30110509F0BECF10925F016C
:100A600064E670E080E090E00E9455011092600121
:100A700064E670E080E090E00E9455010E941F0152
:100A8000ECE1F1E020E030E081E0A901437055277E
:100A9000DF01452B41F013978C9311968C9311969F
:100AA0008C93808308C017978C9311968C93119622
:100AB0008C9311968C932E5F3F4F70962A303105A0
:100AC00021F768EE73E080E090E00E94550104E0B9
:100AD00010E0FFE0AF2EB12CABE0CA2ED12C552494
:100AE000539440E050E02CEF200F277030E0B50128
:100AF000621B730B67707727D601A21BB30BA7701D
:100B0000BB27480197E089229924CA010196E3E0B6
:100B1000880F991FEA95E1F7FA01E370FF27EF2BA1
:100B200049F4FC01E20FF31FE35FFE4F1082880DD2
:100B3000991D08C0FC01E60FF71FE35FFE4F10820E
:100B40008A0F9B1FFC01E35FFE4F50824E5F5F4F99
:100B50004A305105D1F664E670E080E090E00E94F2
:100B600055010F5F1F4F0836110509F0BACF0E94DB
:100B70001F01FAE0DF2ECC24C394ADE0B1E0E8E041
:100B8000AE0F5A2E0DE011E080E090E0F801E80F82
:100B9000F91FC082089688359105C1F764E670E0B8
:100BA00080E090E00E9455010F5F1F4F5012ECCF84
:100BB0000DE011E080E090E0F801E80FF91F1082ED
:100BC000089688359105C1F764E670E080E090E012
:100BD0000E9455010F5F1F4F5012ECCFDA94D110D5
:100BE000D1CF10E001E02DE031E080E010FD2AC01F
:100BF000F90190E0582F5370492F4370523018F488
:100C0000423018F404C0423010F4108201C0008356
:100C10009F5F3196983081F78F5F285F3F4F8B3011
:100C200039F719C0492F4370523088F4423088F0A8
:100C300000839F5F31969830A9F78F5F285F3F4F01
:100C40008B3049F0F90190E0582F5370EBCF4230D0
:100C500078F31082EECF64EF71E080E090E00E94C4
:100C600055011F5F1E3109F0BECF0E941F010E9477
:100C7000FB018E010F5F1F4F20E0DD24D3946BE05A
:100C800070E080E090E02F830E940C02D8016C930A
:100C900068E070E080E090E00E940C02F80161835F
:100CA000E08188E0E89FF0011124E60FF11DE35F89
:100CB000FE4FD08264E170E080E090E00E94550138
:100CC0000E5F1F4F2F81213011F021E0D8CF72E04D
:100CD000C72ED12CE3E08E2E912C44244394C601E0
:100CE000B4010E941B098C016BE070E080E090E091
:100CF0000E940C02000F111FA1E0B0E0AC0FBD1F5D
:100D00000A0F1B1FF801608368E070E080E090E04C
:100D10000E940C02D80111966C931197EC91B8E0E7
:100D2000EB9FF0011124E60FF11DE35FFE4F4082BF
:100D300064E170E080E090E00E945501EFEFCE1A90
:100D4000DE0AC601B4010E941B09FC01EE0FFF1F61
:100D500081E090E08C0F9D1FE80FF91F8181E081F9
:100D600098E0E99FF0011124E80FF11DE35FFE4FC9
:100D70001082A4EFCA16A1E0DA0609F0B0CF0E94F3
:100D80001F010FB6F894DEBF0FBECDBFEDE5F1E059
:100D900091E088E08E0F91938E13FDCF64E670E0B2
:100DA00080E090E00E94550140E5D42ECC24C3940D
:100DB000DD20C1F168E070E080E090E00E940C026C
:100DC000062F10E0F801EB5AFE4F8081813081F34D
:100DD000DA94C08264E670E080E090E00E94550101
:100DE000035B1E4F812C912C5401F80180818130CE
:100DF000F9F21086C082C501B40168587F4F8F4F49
:100E00009F4F0E94550108501109FAE08F1A91086E
:100E1000A108B10826EA82162FEF9206A206B206B2
:100E200021F7C6CF0E941F010E94FB0136E9832EE5
:100E3000912CA12CB12CDD24D3940DE011E080E0A5
:100E400090E0F801E80FF91FD082089688359105E7
:100E5000C1F7C501B4010E94550180E090E0F8019E
:100E6000E80FF91F1082089688359105C1F70F5FCA
:100E70001F4F5012E4CF8AE0881A9108A108B108E8
:100E800092E389169104A104B104B9F6A6E94A2EA9
:100E9000512C612C712C99249394FDE0CF2EF1E01C
:100EA000DF2E04E010E0D60180E090E05801E7E09A
:100EB000AE22BB249C92FC0123E0EE0FFF1F2A957B
:100EC000E1F7EA0DFB1DE35FFE4F90820196189655
:100ED0008B30910579F7C301B2010E94550180E082
:100EE00090E0F601E80FF91F1082FC01EA0DFB1DEE
:100EF000E35FFE4F108208968835910591F7AFEFBA
:100F0000CA1ADA0A0F5F1F4F0C30110561F6FAE0BA
:100F10004F1A51086108710822E342165104610416
:100F2000710409F0BACF0E940B0160ED77E080E018
:100F300090E00E9455010E941F01E5E5F1E091E07B
:100F400088E08E0F91938E13FDCFE8E0CE2EDD2446
:100F5000D394CC2061F168E070E080E090E00E94E2
:100F60000C02E62FF0E0DF01AB5ABE4F8C918823D4
:100F700081F3CA94FD0178E7872E912CA12CB12C26
:100F800010828F0108501109D801DC92C501B4010B
:100F90000E945501F801BAE08B1A9108A108B10826
:100FA0002EE182169104A104B10451F7D2CFEDE0F5
:100FB000F1E011923E12FDCF5DE0A52E51E0B52E7D
:100FC0006BE0D62ECC24C39400E010E0F501E00FD6
:100FD000F11FC08262E370E080E090E00E94550162
:100FE0000F5F1F4F0830110589F7DA9488E0A80ECB
:100FF000B11CD110E9CF3DE0A32E31E0B32E4BE080
:10100000D42E00E010E0F801E05BFF4FEA0DFB1D7D
:10101000108264E170E080E090E00E9455010F5F73
:101020001F4F0830110579F7DA9498E0A91AB10832
:10103000D110E7CF9DE0A92E91E0B92E2BE0D22E62
:10104000CC24C39400E010E0F501E00FF11FC08252
:1010500064E170E080E090E00E9455010F5F1F4F57
:101060000830110589F7DA94A8E0AA0EB11CD11056
:10107000E9CF8BE0D82E00E010E0F801E05BFF4FF5
:10108000EE0DFF1D108262E370E080E090E00E94B0
:1010900055010F5F1F4F0830110579F7DA94B8E05A
:1010A000EB1AF108D110E7CF80E090E0892B09F42A
:1010B0008ACA0E94000087CA8F929F92AF92BF9205
:1010C000CF92DF92EF92FF92CF93DF93EC01688192
:1010D00079818A819B81611571058105910521F4D2
:1010E00064E279ED8BE597E02DE133EF41E050E0EC
:1010F0000E94B80849015A019B01AC01A7EAB1E47A
:101100000E94D7086B017C01ACEEB4EFA5019401FD
:101110000E94E508DC01CB018C0D9D1DAE1DBF1D9D
:10112000B7FF03C00197A109B04888839983AA83B8
:10113000BB83BC01CD019F77DF91CF91FF90EF90F2
:10114000DF90CF90BF90AF909F908F9008950E94B6
:101150005C08089580E091E00E945C080895609327
:10116000000170930101809302019093030108959F
:10117000052E97FB1EF400940E94CF0857FD07D060
:101180000E94EA0807FC03D04EF40C94CF08509557
:101190004095309521953F4F4F4F5F4F0895909563
:1011A0008095709561957F4F8F4F9F4F08950E9456
:1011B0000C09A59F900DB49F900DA49F800D911DCB
:1011C00011240895B7FF0C94D7080E94D708821BFA
:1011D000930B0895A1E21A2EAA1BBB1BFD010DC0A3
:1011E000AA1FBB1FEE1FFF1FA217B307E407F507D7
:1011F00020F0A21BB30BE40BF50B661F771F881FB3
:10120000991F1A9469F760957095809590959B0148
:10121000AC01BD01CF010895A29FB001B39FC001F1
:10122000A39F700D811D1124911DB29F700D811D12
:101230001124911D089597FB072E16F4009407D0F2
:1012400077FD09D00E942F0907FC05D03EF4909548
:1012500081959F4F0895709561957F4F0895AA1BC2
:10126000BB1B51E107C0AA1FBB1FA617B70710F091
:10127000A61BB70B881F991F5A95A9F780959095C3
:0A128000BC01CD010895F894FFCFE2
:04128A00010000005F
:107E000085E08093810082E08093C00088E18093C8
:107E1000C10086E08093C20080E18093C40084B7F3
:107E200014BE81FFD0D089E2C8D0259A86E020E335
:107E30003CEF91E0309385002093840096BBB09B8B
:107E4000FECF1D9AA8958150A9F7DD24D394A5E013
:107E5000EA2EF1E1FF2EA4D0813421F481E0BED0DE
:107E600083E024C0823411F484E103C0853419F422
:107E700085E0B4D08AC08535A1F492D0082F10E0F7
:107E800010930102009300028BD090E0982F882776
:107E9000802B912B880F991F9093010280930002F1
:107EA00073C0863529F484E099D080E071D06DC02C
:107EB000843609F043C07CD0E0910002F0910102C9
:107EC00083E080935700E895C0E0D1E069D08993C2
:107ED000809102028150809302028823B9F778D002
:107EE00007B600FCFDCF4091000250910102A0E0D6
:107EF000B1E02C9130E011968C91119790E0982F81
:107F00008827822B932B1296FA010C01D0925700EE
:107F1000E89511244E5F5F4FF1E0A038BF0749F7A5
:107F2000E0910002F0910102E0925700E89507B657
:107F300000FCFDCFF0925700E89527C08437B9F4D4
:107F400037D046D0E0910002F09101023196F093D3
:107F50000102E09300023197E4918E2F19D08091B5
:107F60000202815080930202882361F70EC0853798
:107F700039F42ED08EE10CD085E90AD08FE096CF6F
:107F8000813511F488E019D023D080E101D063CF8E
:107F9000982F8091C00085FFFCCF9093C600089574
:107FA000A8958091C00087FFFCCF8091C6000895FE
:107FB000F7DFF6DF80930202F3CFE0E6F0E098E12E
:107FC00090838083089580E0F8DFEE27FF270994EF
:107FD000E7DF803209F0F7DF84E1DACF1F93182F53
:0C7FE000DFDF1150E9F7F4DF1F91089576
:0400000300007E007B
:00000001FF
